{
  "contractName": "Election",
  "abi": [
    {
      "constant": true,
      "inputs": [
        {
          "name": "",
          "type": "uint256"
        }
      ],
      "name": "questions",
      "outputs": [
        {
          "name": "id",
          "type": "uint256"
        },
        {
          "name": "question",
          "type": "string"
        },
        {
          "name": "answer",
          "type": "bytes32"
        }
      ],
      "payable": false,
      "stateMutability": "view",
      "type": "function",
      "signature": "0x31b1b978"
    },
    {
      "constant": true,
      "inputs": [],
      "name": "questionAndAnswerCount",
      "outputs": [
        {
          "name": "",
          "type": "uint256"
        }
      ],
      "payable": false,
      "stateMutability": "view",
      "type": "function",
      "signature": "0x6e587ec0"
    },
    {
      "inputs": [],
      "payable": false,
      "stateMutability": "nonpayable",
      "type": "constructor",
      "signature": "constructor"
    },
    {
      "payable": true,
      "stateMutability": "payable",
      "type": "fallback"
    },
    {
      "constant": false,
      "inputs": [],
      "name": "getQuestionsCount",
      "outputs": [
        {
          "name": "",
          "type": "uint256"
        }
      ],
      "payable": false,
      "stateMutability": "nonpayable",
      "type": "function",
      "signature": "0xc2e112d2"
    },
    {
      "constant": false,
      "inputs": [
        {
          "name": "to",
          "type": "address"
        }
      ],
      "name": "grantStudent",
      "outputs": [],
      "payable": false,
      "stateMutability": "nonpayable",
      "type": "function",
      "signature": "0x313efd2f"
    },
    {
      "constant": false,
      "inputs": [
        {
          "name": "answer",
          "type": "bytes"
        },
        {
          "name": "id",
          "type": "uint256"
        }
      ],
      "name": "answerQ",
      "outputs": [],
      "payable": false,
      "stateMutability": "nonpayable",
      "type": "function",
      "signature": "0xfe248cbe"
    },
    {
      "constant": false,
      "inputs": [
        {
          "name": "q",
          "type": "string"
        },
        {
          "name": "a",
          "type": "bytes32"
        }
      ],
      "name": "addQuestion",
      "outputs": [],
      "payable": false,
      "stateMutability": "nonpayable",
      "type": "function",
      "signature": "0x9d4b8102"
    },
    {
      "constant": false,
      "inputs": [],
      "name": "selfdestruct",
      "outputs": [],
      "payable": false,
      "stateMutability": "nonpayable",
      "type": "function",
      "signature": "0x679d38e0"
    }
  ],
  "bytecode": "0x60806040523480156200001157600080fd5b5033600360006101000a81548173ffffffffffffffffffffffffffffffffffffffff021916908373ffffffffffffffffffffffffffffffffffffffff160217905550620000ed606060405190810160405280602a81526020017f5768617420636f6e73656e73757320616c676f726974686d20646f657320426981526020017f74636f696e207573653f000000000000000000000000000000000000000000008152507f73b01e93631118159b40599836bb23022ca7ad00c1203d18984cd982654e7f4060010262000466640100000000026401000000009004565b620001ac608060405190810160405280605881526020017f4e6f726d616c2063757272656e6369657320666f6c6c6f7720616e20696e666c81526020017f6174696f6e617279207072696365206d6f64656c2c20426974636f696e20666f81526020017f6c6c6f77732061205f5f5f207072696365206d6f64656c3f00000000000000008152507e69a1598be3e8a3f4eb13b8b3abeb4f62934eecf21e06e4bd7dd0e954c8f43660010262000466640100000000026401000000009004565b62000246606060405190810160405280604081526020017f4120626c6f636b636861696e2074686174206973207374726963746c7920707281526020017f69766174652c206973206a757374206120676c6f72696669656420776861743f8152507f3549b0028b75d981cdda2e573e9cb49dedc200185876df299f912b79f69dabd860010262000466640100000000026401000000009004565b62000306608060405190810160405280604881526020017f576861742069732074686520636f6c6c656374696f6e206f6620616c6c20457481526020017f68657265756d206e6f64657320616c736f206b6e6f776e2061733f204120776f81526020017f726c64205f5f5f3f0000000000000000000000000000000000000000000000008152507faa97302150fce811425cd84537028a5afbe37e3f1362ad45a51d467e17afdc9c60010262000466640100000000026401000000009004565b620003c6608060405190810160405280604c81526020017f576861742070726f6365737320697320696d706f737369626c6520746f20636f81526020017f6e64756374206f6e2074686520426974636f696e20626c6f636b636861696e2c81526020017f20646f75626c65205f5f5f3f00000000000000000000000000000000000000008152507f262cd7e8d3156b5b97113a373c84d53289db4530e285d5c8db3e9874abc891a960010262000466640100000000026401000000009004565b62000460606060405190810160405280603b81526020017f576861742070617274206f6620612063727970746f63757272656e637920776181526020017f6c6c6574206d75737420796f75206e65766572206578706f73653f00000000008152507fd7cd482cb958ef235f5d26e852472ba1ee5309eab18e3c6712181a7bfae8000060010262000466640100000000026401000000009004565b620006ad565b600360009054906101000a900473ffffffffffffffffffffffffffffffffffffffff1673ffffffffffffffffffffffffffffffffffffffff163373ffffffffffffffffffffffffffffffffffffffff1614151562000552576040517f08c379a00000000000000000000000000000000000000000000000000000000081526004018080602001828103825260288152602001807f4f6e6c792043727970746f207072696e6369706c65206d61792061646420717581526020017f657374696f6e732e00000000000000000000000000000000000000000000000081525060400191505060405180910390fd5b6200055c620005d9565b606060405190810160405280600080815480929190600101919050558152602001848152602001838152509050806001600080548152602001908152602001600020600082015181600001556020820151816001019080519060200190620005c6929190620005fe565b5060408201518160020155905050505050565b6060604051908101604052806000815260200160608152602001600080191681525090565b828054600181600116156101000203166002900490600052602060002090601f016020900481019282601f106200064157805160ff191683800117855562000672565b8280016001018555821562000672579182015b828111156200067157825182559160200191906001019062000654565b5b50905062000681919062000685565b5090565b620006aa91905b80821115620006a65760008160009055506001016200068c565b5090565b90565b610ce380620006bd6000396000f3fe608060405260043610610083576000357c0100000000000000000000000000000000000000000000000000000000900463ffffffff168063313efd2f1461008557806331b1b978146100d6578063679d38e0146101985780636e587ec0146101af5780639d4b8102146101da578063c2e112d2146102ac578063fe248cbe146102d7575b005b34801561009157600080fd5b506100d4600480360360208110156100a857600080fd5b81019080803573ffffffffffffffffffffffffffffffffffffffff1690602001909291905050506103a9565b005b3480156100e257600080fd5b5061010f600480360360208110156100f957600080fd5b81019080803590602001909291905050506104f2565b6040518084815260200180602001838152602001828103825284818151815260200191508051906020019080838360005b8381101561015b578082015181840152602081019050610140565b50505050905090810190601f1680156101885780820380516001836020036101000a031916815260200191505b5094505050505060405180910390f35b3480156101a457600080fd5b506101ad6105b4565b005b3480156101bb57600080fd5b506101c46106a9565b6040518082815260200191505060405180910390f35b3480156101e657600080fd5b506102aa600480360360408110156101fd57600080fd5b810190808035906020019064010000000081111561021a57600080fd5b82018360208201111561022c57600080fd5b8035906020019184600183028401116401000000008311171561024e57600080fd5b91908080601f016020809104026020016040519081016040528093929190818152602001838380828437600081840152601f19601f820116905080830192505050505050509192919290803590602001909291905050506106af565b005b3480156102b857600080fd5b506102c161081d565b6040518082815260200191505060405180910390f35b3480156102e357600080fd5b506103a7600480360360408110156102fa57600080fd5b810190808035906020019064010000000081111561031757600080fd5b82018360208201111561032957600080fd5b8035906020019184600183028401116401000000008311171561034b57600080fd5b91908080601f016020809104026020016040519081016040528093929190818152602001838380828437600081840152601f19601f82011690508083019250505050505050919291929080359060200190929190505050610826565b005b600360009054906101000a900473ffffffffffffffffffffffffffffffffffffffff1673ffffffffffffffffffffffffffffffffffffffff163373ffffffffffffffffffffffffffffffffffffffff16141515610494576040517f08c379a00000000000000000000000000000000000000000000000000000000081526004018080602001828103825260318152602001807f4f6e6c792043727970746f207072696e6369706c65206d6179206772616e742081526020017f61207573657220612073747564656e742e00000000000000000000000000000081525060400191505060405180910390fd5b6001600260008373ffffffffffffffffffffffffffffffffffffffff1673ffffffffffffffffffffffffffffffffffffffff16815260200190815260200160002060000160006101000a81548160ff02191690831515021790555050565b6001602052806000526040600020600091509050806000015490806001018054600181600116156101000203166002900480601f0160208091040260200160405190810160405280929190818152602001828054600181600116156101000203166002900480156105a45780601f10610579576101008083540402835291602001916105a4565b820191906000526020600020905b81548152906001019060200180831161058757829003601f168201915b5050505050908060020154905083565b600360009054906101000a900473ffffffffffffffffffffffffffffffffffffffff1673ffffffffffffffffffffffffffffffffffffffff163373ffffffffffffffffffffffffffffffffffffffff1614151561069f576040517f08c379a00000000000000000000000000000000000000000000000000000000081526004018080602001828103825260348152602001807f4f6e6c792043727970746f207072696e6369706c65206d61792064657374726f81526020017f79207468652043727970746f205363686f6f6c2e00000000000000000000000081525060400191505060405180910390fd5b6106a76105b4565b565b60005481565b600360009054906101000a900473ffffffffffffffffffffffffffffffffffffffff1673ffffffffffffffffffffffffffffffffffffffff163373ffffffffffffffffffffffffffffffffffffffff1614151561079a576040517f08c379a00000000000000000000000000000000000000000000000000000000081526004018080602001828103825260288152602001807f4f6e6c792043727970746f207072696e6369706c65206d61792061646420717581526020017f657374696f6e732e00000000000000000000000000000000000000000000000081525060400191505060405180910390fd5b6107a2610bed565b60606040519081016040528060008081548092919060010191905055815260200184815260200183815250905080600160008054815260200190815260200160002060008201518160000155602082015181600101908051906020019061080a929190610c12565b5060408201518160020155905050505050565b60008054905090565b600360009054906101000a900473ffffffffffffffffffffffffffffffffffffffff1673ffffffffffffffffffffffffffffffffffffffff163373ffffffffffffffffffffffffffffffffffffffff1614151515610912576040517f08c379a000000000000000000000000000000000000000000000000000000000815260040180806020018281038252603e8152602001807f5072696e6369706c65206973206e6f7420616c6c6f77656420746f20616e737781526020017f6572207175657374696f6e732c207468657927726520657870657274732e000081525060400191505060405180910390fd5b600260003373ffffffffffffffffffffffffffffffffffffffff1673ffffffffffffffffffffffffffffffffffffffff16815260200190815260200160002060000160009054906101000a900460ff1615156109fc576040517f08c379a00000000000000000000000000000000000000000000000000000000081526004018080602001828103825260408152602001807f4f74686572207573657273206d6179206e6f7420616e7377657220717565737481526020017f696f6e732c2074686579206172652070726f6261626c7920657870657274732e81525060400191505060405180910390fd5b610a04610bed565b600160008381526020019081526020016000206060604051908101604052908160008201548152602001600182018054600181600116156101000203166002900480601f016020809104026020016040519081016040528092919081815260200182805460018160011615610100020316600290048015610ac65780601f10610a9b57610100808354040283529160200191610ac6565b820191906000526020600020905b815481529060010190602001808311610aa957829003601f168201915b50505050508152602001600282015481525050905060006002846040518082805190602001908083835b602083101515610b155780518252602082019150602081019050602083039250610af0565b6001836020036101000a038019825116818451168082178552505050505050905001915050602060405180830381855afa158015610b57573d6000803e3d6000fd5b5050506040513d6020811015610b6c57600080fd5b810190808051906020019092919050505090508160400151811415610bdf573373ffffffffffffffffffffffffffffffffffffffff166108fc670de0b6b3a76400009081150290604051600060405180830381858888f19350505050158015610bd9573d6000803e3d6000fd5b50610be6565b5050610be9565b50505b5050565b6060604051908101604052806000815260200160608152602001600080191681525090565b828054600181600116156101000203166002900490600052602060002090601f016020900481019282601f10610c5357805160ff1916838001178555610c81565b82800160010185558215610c81579182015b82811115610c80578251825591602001919060010190610c65565b5b509050610c8e9190610c92565b5090565b610cb491905b80821115610cb0576000816000905550600101610c98565b5090565b9056fea165627a7a72305820f360b11bc341d44dd8f31738f9fe76218f6a516103a39ab40425adad80a2d0260029",
  "source": "pragma solidity ^0.5.0;\n\ncontract Election {\n    \n    struct questionAndAnswer {\n        uint id;\n        string question;\n        bytes32 answer;\n    }\n    \n    // Store questionAndAnswer count\n    uint public questionAndAnswerCount;\n    \n    // the set of questions and their answers.\n    mapping (uint => questionAndAnswer) public questions;\n    \n    // the set of users (not necessarily students.)\n    mapping (address => User) users;\n     \n    // address of the owner/principle with special rights (granting user a student.)\n    address principle; \n    \n    // \n    struct User {\n        bool student;\n        // int correct;\n        // int totalAsnwered;\n    }\n    \n    function getQuestionsCount() public returns (uint){\n        return questionAndAnswerCount;\n    }\n    \n    //grant an address to be a student (We don't want experts to take quizes)\n    function grantStudent(address to) public {\n        // make sure only the principle is allowed to grant a user to be a student\n        require(\n            msg.sender == principle,\n            \"Only Crypto principle may grant a user a student.\"\n        );\n        \n        users[to].student = true;\n    }\n    \n    // \n    function answerQ(bytes memory answer, uint id) public {\n        // principle is not allowed to answer questions.\n        require(\n            msg.sender != principle,\n            \"Principle is not allowed to answer questions, they're experts.\"    \n        );\n        \n        // user must be a granted student (no experts).\n        require(\n            users[msg.sender].student,\n            \"Other users may not answer questions, they are probably experts.\"\n        );\n        \n        questionAndAnswer memory myQuestionAndAnswer = questions[id];\n        \n        bytes32 studentsAnswer = sha256(answer);\n        \n        if((studentsAnswer) == (myQuestionAndAnswer.answer)){\n            msg.sender.transfer(1000000000000000000);\n        }else{\n            return;\n        }\n    }\n    \n    // a questionAndAnswer to questions\n    function addQuestion(string memory q, bytes32 a) public{\n        // only crypto principle may add questions\n        require(\n            msg.sender == principle,\n            \"Only Crypto principle may add questions.\"\n        );\n        questionAndAnswer memory myQuestionAndAnswer = questionAndAnswer(questionAndAnswerCount++, q, a);\n        questions[questionAndAnswerCount] = myQuestionAndAnswer;\n    }\n    \n    // Accept any incoming amount to fund the contract.\n    function () external payable {}\n\n    // create contract, make sender the \"owner\" of the contract.\n    constructor() public {\n        principle = msg.sender;\n        addQuestion(\"What consensus algorithm does Bitcoin use?\", 0x73B01E93631118159B40599836BB23022CA7AD00C1203D18984CD982654E7F40);\n        addQuestion(\"Normal currencies follow an inflationary price model, Bitcoin follows a ___ price model?\", 0x0069A1598BE3E8A3F4EB13B8B3ABEB4F62934EECF21E06E4BD7DD0E954C8F436);\n        addQuestion(\"A blockchain that is strictly private, is just a glorified what?\", 0x3549B0028B75D981CDDA2E573E9CB49DEDC200185876DF299F912B79F69DABD8);\n        addQuestion(\"What is the collection of all Ethereum nodes also known as? A world ___?\", 0xAA97302150FCE811425CD84537028A5AFBE37E3F1362AD45A51D467E17AFDC9C);\n        addQuestion(\"What process is impossible to conduct on the Bitcoin blockchain, double ___?\", 0x262CD7E8D3156B5B97113A373C84D53289DB4530E285D5C8DB3E9874ABC891A9);\n        addQuestion(\"What part of a cryptocurrency wallet must you never expose?\", 0xD7CD482CB958EF235F5D26E852472BA1EE5309EAB18E3C6712181A7BFAE80000);\n    }\n    \n    function selfdestruct() public {\n        require(\n            msg.sender == principle,\n            \"Only Crypto principle may destroy the Crypto School.\"\n        );\n        selfdestruct();\n    }\n}",
  "sourcePath": "/home/paul/code/cryptocademy/election_react/contracts/Election.sol",
  "compiler": {
    "name": "solc",
    "version": "0.5.0+commit.1d4f565a.Emscripten.clang"
  },
  "schemaVersion": "3.0.1",
  "updatedAt": "2019-01-18T08:31:34.927Z",
  "devdoc": {
    "methods": {}
  },
  "userdoc": {
    "methods": {}
  }
}