{
  "contractName": "Quiz",
  "abi": [
    {
      "inputs": [
        {
          "internalType": "address",
          "name": "blAddress",
          "type": "address"
        }
      ],
      "payable": false,
      "stateMutability": "nonpayable",
      "type": "constructor"
    },
    {
      "payable": true,
      "stateMutability": "payable",
      "type": "fallback"
    },
    {
      "constant": true,
      "inputs": [],
      "name": "questionAndAnswerCount",
      "outputs": [
        {
          "internalType": "uint256",
          "name": "",
          "type": "uint256"
        }
      ],
      "payable": false,
      "stateMutability": "view",
      "type": "function"
    },
    {
      "constant": true,
      "inputs": [
        {
          "internalType": "uint256",
          "name": "",
          "type": "uint256"
        }
      ],
      "name": "questions",
      "outputs": [
        {
          "internalType": "uint256",
          "name": "id",
          "type": "uint256"
        },
        {
          "internalType": "string",
          "name": "question",
          "type": "string"
        },
        {
          "internalType": "bytes32",
          "name": "answer",
          "type": "bytes32"
        }
      ],
      "payable": false,
      "stateMutability": "view",
      "type": "function"
    },
    {
      "constant": false,
      "inputs": [
        {
          "internalType": "address",
          "name": "queryAddress",
          "type": "address"
        }
      ],
      "name": "isAddrOnBlacklist",
      "outputs": [
        {
          "internalType": "bool",
          "name": "",
          "type": "bool"
        }
      ],
      "payable": false,
      "stateMutability": "nonpayable",
      "type": "function"
    },
    {
      "constant": false,
      "inputs": [],
      "name": "getQuestionsCount",
      "outputs": [
        {
          "internalType": "uint256",
          "name": "",
          "type": "uint256"
        }
      ],
      "payable": false,
      "stateMutability": "nonpayable",
      "type": "function"
    },
    {
      "constant": false,
      "inputs": [
        {
          "internalType": "address",
          "name": "to",
          "type": "address"
        }
      ],
      "name": "grantStudent",
      "outputs": [],
      "payable": false,
      "stateMutability": "nonpayable",
      "type": "function"
    },
    {
      "constant": false,
      "inputs": [
        {
          "internalType": "uint256",
          "name": "answer",
          "type": "uint256"
        },
        {
          "internalType": "uint256",
          "name": "id",
          "type": "uint256"
        }
      ],
      "name": "answerQ",
      "outputs": [],
      "payable": false,
      "stateMutability": "nonpayable",
      "type": "function"
    },
    {
      "constant": false,
      "inputs": [
        {
          "internalType": "string",
          "name": "q",
          "type": "string"
        },
        {
          "internalType": "bytes32",
          "name": "a",
          "type": "bytes32"
        }
      ],
      "name": "addQuestion",
      "outputs": [],
      "payable": false,
      "stateMutability": "nonpayable",
      "type": "function"
    },
    {
      "constant": false,
      "inputs": [],
      "name": "selfdestruct",
      "outputs": [],
      "payable": false,
      "stateMutability": "nonpayable",
      "type": "function"
    }
  ],
  "bytecode": "0x60806040523480156200001157600080fd5b506040516200112a3803806200112a833981810160405260208110156200003757600080fd5b8101908080519060200190929190505050806000806101000a81548173ffffffffffffffffffffffffffffffffffffffff021916908373ffffffffffffffffffffffffffffffffffffffff16021790555033600460006101000a81548173ffffffffffffffffffffffffffffffffffffffff021916908373ffffffffffffffffffffffffffffffffffffffff160217905550620001176040518060600160405280602a81526020016200106d602a91397f73b01e93631118159b40599836bb23022ca7ad00c1203d18984cd982654e7f4060001b620002a360201b60201c565b6200016460405180608001604052806058815260200162001097605891397e69a1598be3e8a3f4eb13b8b3abeb4f62934eecf21e06e4bd7dd0e954c8f43660001b620002a360201b60201c565b620001b26040518060600160405280604081526020016200102d604091397f3549b0028b75d981cdda2e573e9cb49dedc200185876df299f912b79f69dabd860001b620002a360201b60201c565b6200020060405180608001604052806048815260200162000f71604891397faa97302150fce811425cd84537028a5afbe37e3f1362ad45a51d467e17afdc9c60001b620002a360201b60201c565b6200024e6040518060800160405280604c815260200162000fb9604c91397f262cd7e8d3156b5b97113a373c84d53289db4530e285d5c8db3e9874abc891a960001b620002a360201b60201c565b6200029c6040518060600160405280603b8152602001620010ef603b91397fd7cd482cb958ef235f5d26e852472ba1ee5309eab18e3c6712181a7bfae8000060001b620002a360201b60201c565b50620004a6565b600460009054906101000a900473ffffffffffffffffffffffffffffffffffffffff1673ffffffffffffffffffffffffffffffffffffffff163373ffffffffffffffffffffffffffffffffffffffff16146200034b576040517f08c379a0000000000000000000000000000000000000000000000000000000008152600401808060200182810382526028815260200180620010056028913960400191505060405180910390fd5b62000355620003d3565b60405180606001604052806001600081548092919060010191905055815260200184815260200183815250905080600260006001548152602001908152602001600020600082015181600001556020820151816001019080519060200190620003c0929190620003f7565b5060408201518160020155905050505050565b60405180606001604052806000815260200160608152602001600080191681525090565b828054600181600116156101000203166002900490600052602060002090601f016020900481019282601f106200043a57805160ff19168380011785556200046b565b828001600101855582156200046b579182015b828111156200046a5782518255916020019190600101906200044d565b5b5090506200047a91906200047e565b5090565b620004a391905b808211156200049f57600081600090555060010162000485565b5090565b90565b610abb80620004b66000396000f3fe60806040526004361061007b5760003560e01c80639d4b81021161004e5780639d4b8102146101d2578063c2e112d2146102a4578063d308e8b0146102cf578063faeb0d2f146103145761007b565b8063313efd2f1461007d57806331b1b978146100ce578063679d38e0146101905780636e587ec0146101a7575b005b34801561008957600080fd5b506100cc600480360360208110156100a057600080fd5b81019080803573ffffffffffffffffffffffffffffffffffffffff16906020019092919050505061037d565b005b3480156100da57600080fd5b50610107600480360360208110156100f157600080fd5b8101908080359060200190929190505050610481565b6040518084815260200180602001838152602001828103825284818151815260200191508051906020019080838360005b83811015610153578082015181840152602081019050610138565b50505050905090810190601f1680156101805780820380516001836020036101000a031916815260200191505b5094505050505060405180910390f35b34801561019c57600080fd5b506101a5610543565b005b3480156101b357600080fd5b506101bc6105f3565b6040518082815260200191505060405180910390f35b3480156101de57600080fd5b506102a2600480360360408110156101f557600080fd5b810190808035906020019064010000000081111561021257600080fd5b82018360208201111561022457600080fd5b8035906020019184600183028401116401000000008311171561024657600080fd5b91908080601f016020809104026020016040519081016040528093929190818152602001838380828437600081840152601f19601f820116905080830192505050505050509192919290803590602001909291905050506105f9565b005b3480156102b057600080fd5b506102b9610723565b6040518082815260200191505060405180910390f35b3480156102db57600080fd5b50610312600480360360408110156102f257600080fd5b81019080803590602001909291908035906020019092919050505061072d565b005b34801561032057600080fd5b506103636004803603602081101561033757600080fd5b81019080803573ffffffffffffffffffffffffffffffffffffffff16906020019092919050505061084c565b604051808215151515815260200191505060405180910390f35b600460009054906101000a900473ffffffffffffffffffffffffffffffffffffffff1673ffffffffffffffffffffffffffffffffffffffff163373ffffffffffffffffffffffffffffffffffffffff1614610423576040517f08c379a00000000000000000000000000000000000000000000000000000000081526004018080602001828103825260318152602001806109fa6031913960400191505060405180910390fd5b6001600360008373ffffffffffffffffffffffffffffffffffffffff1673ffffffffffffffffffffffffffffffffffffffff16815260200190815260200160002060000160006101000a81548160ff02191690831515021790555050565b6002602052806000526040600020600091509050806000015490806001018054600181600116156101000203166002900480601f0160208091040260200160405190810160405280929190818152602001828054600181600116156101000203166002900480156105335780601f1061050857610100808354040283529160200191610533565b820191906000526020600020905b81548152906001019060200180831161051657829003601f168201915b5050505050908060020154905083565b600460009054906101000a900473ffffffffffffffffffffffffffffffffffffffff1673ffffffffffffffffffffffffffffffffffffffff163373ffffffffffffffffffffffffffffffffffffffff16146105e9576040517f08c379a0000000000000000000000000000000000000000000000000000000008152600401808060200182810382526034815260200180610a2b6034913960400191505060405180910390fd5b6105f1610543565b565b60015481565b600460009054906101000a900473ffffffffffffffffffffffffffffffffffffffff1673ffffffffffffffffffffffffffffffffffffffff163373ffffffffffffffffffffffffffffffffffffffff161461069f576040517f08c379a0000000000000000000000000000000000000000000000000000000008152600401808060200182810382526028815260200180610a5f6028913960400191505060405180910390fd5b6106a7610930565b60405180606001604052806001600081548092919060010191905055815260200184815260200183815250905080600260006001548152602001908152602001600020600082015181600001556020820151816001019080519060200190610710929190610954565b5060408201518160020155905050505050565b6000600154905090565b60006107383361084c565b9050600015158115151461074b57600080fd5b610753610930565b6002600084815260200190815260200160002060405180606001604052908160008201548152602001600182018054600181600116156101000203166002900480601f0160208091040260200160405190810160405280929190818152602001828054600181600116156101000203166002900480156108145780601f106107e957610100808354040283529160200191610814565b820191906000526020600020905b8154815290600101906020018083116107f757829003601f168201915b505050505081526020016002820154815250509050600080905060018514156108405760019050610845565b600290505b5050505050565b60008060009054906101000a900473ffffffffffffffffffffffffffffffffffffffff1673ffffffffffffffffffffffffffffffffffffffff1663d74d939b836040518263ffffffff1660e01b8152600401808273ffffffffffffffffffffffffffffffffffffffff1673ffffffffffffffffffffffffffffffffffffffff168152602001915050602060405180830381600087803b1580156108ee57600080fd5b505af1158015610902573d6000803e3d6000fd5b505050506040513d602081101561091857600080fd5b81019080805190602001909291905050509050919050565b60405180606001604052806000815260200160608152602001600080191681525090565b828054600181600116156101000203166002900490600052602060002090601f016020900481019282601f1061099557805160ff19168380011785556109c3565b828001600101855582156109c3579182015b828111156109c25782518255916020019190600101906109a7565b5b5090506109d091906109d4565b5090565b6109f691905b808211156109f25760008160009055506001016109da565b5090565b9056fe4f6e6c792043727970746f207072696e6369706c65206d6179206772616e742061207573657220612073747564656e742e4f6e6c792043727970746f207072696e6369706c65206d61792064657374726f79207468652043727970746f205363686f6f6c2e4f6e6c792043727970746f207072696e6369706c65206d617920616464207175657374696f6e732ea265627a7a72315820766e5f86b80dcb17998f69ab392810355a4723e3195f66be45c82b73c1d39acd64736f6c634300050c0032576861742069732074686520636f6c6c656374696f6e206f6620616c6c20457468657265756d206e6f64657320616c736f206b6e6f776e2061733f204120776f726c64205f5f5f3f576861742070726f6365737320697320696d706f737369626c6520746f20636f6e64756374206f6e2074686520426974636f696e20626c6f636b636861696e2c20646f75626c65205f5f5f3f4f6e6c792043727970746f207072696e6369706c65206d617920616464207175657374696f6e732e4120626c6f636b636861696e2074686174206973207374726963746c7920707269766174652c206973206a757374206120676c6f72696669656420776861743f5768617420636f6e73656e73757320616c676f726974686d20646f657320426974636f696e207573653f4e6f726d616c2063757272656e6369657320666f6c6c6f7720616e20696e666c6174696f6e617279207072696365206d6f64656c2c20426974636f696e20666f6c6c6f77732061205f5f5f207072696365206d6f64656c3f576861742070617274206f6620612063727970746f63757272656e63792077616c6c6574206d75737420796f75206e65766572206578706f73653f",
  "source": "pragma solidity ^0.5.0;\n\ncontract Quiz {\n    \n    Blacklist bl;\n    \n    struct questionAndAnswer {\n        uint id;\n        string question;\n        bytes32 answer;\n    }\n    \n    // Store questionAndAnswer count\n    uint public questionAndAnswerCount;\n    \n    // the set of questions and their answers.\n    mapping (uint => questionAndAnswer) public questions;\n    \n    // the set of users (not necessarily students.)\n    mapping (address => User) users;\n     \n    // address of the owner/principle with special rights (granting user a student.)\n    address principle; \n    \n    // \n    struct User {\n\n        bool student;\n    }\n    \n    function isAddrOnBlacklist(address queryAddress) public returns (bool){\n\n        return bl.getBlackListed(queryAddress);\n    }\n\n    function getQuestionsCount() public returns (uint){\n\n        return questionAndAnswerCount;\n    }\n    \n    //grant a user to be a student (We don't want experts to take quizes)\n    function grantStudent(address to) public {\n        // =only the principle is allowed to grant a user to be a student\n        require(\n            msg.sender == principle,\n            \"Only Crypto principle may grant a user a student.\"\n        );\n        // grant user to be a strudent\n        users[to].student = true;\n    }\n\n    // function answerQ(bytes memory answer, uint id) public { // answer a question\n    function answerQ(uint answer, uint id) public { // answer a question\n        /* Every exchange, wallet, game, etc. using smart contracts must use this code to prevent \n           supposed criminals from conducting any transactions.\n           Checks to see if an address is on the ONE blacklist.*/\n        bool isOnBlacklist = isAddrOnBlacklist(msg.sender);\n        require(isOnBlacklist == false);\n        /* Ends here.*/\n\n        // require( // principle is not allowed to answer questions.\n        //     msg.sender != principle,\n        //     \"Principle is not allowed to answer questions, they're experts.\"    \n        // );\n        \n        // require( // user must be a granted student (no experts).\n        //     users[msg.sender].student,\n        //     \"Other users may not answer questions, they are probably experts.\"\n        // );\n\n        questionAndAnswer memory myQuestionAndAnswer = questions[id];\n        \n        // bytes32 studentsAnswer = sha256(answer);\n        \n        uint a = 0;\n\n        if (answer == 1){\n            a = 1;\n        } else {\n            a = 2;\n        }\n\n        // if((studentsAnswer) == (myQuestionAndAnswer.answer)){\n        //     msg.sender.transfer(1000000000000000); //0.01 ETH\n        // }else{\n        //     return;\n        // }\n    }\n    \n    // add a question\n    function addQuestion(string memory q, bytes32 a) public{\n        // only crypto principle may add questions\n        require(\n            msg.sender == principle,\n            \"Only Crypto principle may add questions.\"\n        );\n        questionAndAnswer memory myQuestionAndAnswer = questionAndAnswer(questionAndAnswerCount++, q, a);\n        questions[questionAndAnswerCount] = myQuestionAndAnswer;\n    }\n    \n    // Accept any incoming amount to fund the contract.\n    function () external payable {}\n    \n    constructor(address blAddress) public { // create contract, make sender the \"owner\" of the contract.\n        /*\n            Every exchange, wallet, game, etc. using smart contract must use this code to prevent \n            supposed criminals from conducting any transactions.\n            initialises this smart contract's instance of the ONE blacklist contract.\n        */\n        bl = Blacklist(blAddress);\n        /*\n            Ends here.\n        */\n        principle = msg.sender;\n        addQuestion(\"What consensus algorithm does Bitcoin use?\", 0x73B01E93631118159B40599836BB23022CA7AD00C1203D18984CD982654E7F40);\n        addQuestion(\"Normal currencies follow an inflationary price model, Bitcoin follows a ___ price model?\", 0x0069A1598BE3E8A3F4EB13B8B3ABEB4F62934EECF21E06E4BD7DD0E954C8F436);\n        addQuestion(\"A blockchain that is strictly private, is just a glorified what?\", 0x3549B0028B75D981CDDA2E573E9CB49DEDC200185876DF299F912B79F69DABD8);\n        addQuestion(\"What is the collection of all Ethereum nodes also known as? A world ___?\", 0xAA97302150FCE811425CD84537028A5AFBE37E3F1362AD45A51D467E17AFDC9C);\n        addQuestion(\"What process is impossible to conduct on the Bitcoin blockchain, double ___?\", 0x262CD7E8D3156B5B97113A373C84D53289DB4530E285D5C8DB3E9874ABC891A9);\n        addQuestion(\"What part of a cryptocurrency wallet must you never expose?\", 0xD7CD482CB958EF235F5D26E852472BA1EE5309EAB18E3C6712181A7BFAE80000);\n    }\n\n    function selfdestruct() public {\n        require(\n            msg.sender == principle,\n            \"Only Crypto principle may destroy the Crypto School.\"\n        );\n        selfdestruct();\n    }\n}\n\ncontract Blacklist {\n    // function blackAddrsQuery(address queryAddress) public pure returns (bool);\n    function getBlackListed(address queryAddress) public returns (bool);\n    function appendToBlacklist (address blackAddress) public;\n    function requestRemoval (address blackAddress) public;\n    function remove (address blackAddress) public;\n    function voteForRemoval(address blackAddress, bool vote) public;\n    function calcRemovalConsensus (address blackAddress) public returns (uint256);\n    function getTimestamp() public returns (uint);\n}\n\n// ------------------------------------------------------------------------------------------------------------------------------\n// ------------------------------------------------------------------------------------------------------------------------------\n// ------------------------------------------------------------------------------------------------------------------------------\n\n// pragma solidity ^0.5.0;\n\n// contract QuizDapp {\n//     Blacklist bl;\n\n//     struct questionAndAnswer {\n//         uint id;\n//         string question;\n//         bytes32 answer;\n//     }\n\n//     uint public questionAndAnswerCount; // Store questionAndAnswer count\n//     mapping (uint => questionAndAnswer) public questions; // the set of questions and their answers.\n//     mapping (address => User) users; // the set of users (not necessarily students.)\n//     address principle; // address of the owner/principle with special rights (granting user a student.)\n//     struct User {bool student;}\n\n//     function isAddrOnBlacklist(address queryAddress) public returns (bool){\n\n//         return bl.getBlackListed(queryAddress);\n//     }\n    \n//     function getQuestionsCount() public returns (uint){\n\n//         return questionAndAnswerCount;\n//     }\n    \n//     function grantStudent(address to) public { //grant a user to be a student (We don't want experts to take quizes)\n//         require( // only the principle is allowed to grant a user to be a student\n//             msg.sender == principle,\n//             \"Only Crypto principle may grant a user a student.\"\n//         );\n//         users[to].student = true; // grant user to be a strudent\n//     }\n    \n//     function answerQ(bytes memory answer, uint id) public { // answer a question\n//         /*\n//             Every exchange, wallet, game, etc. using smart contract must use this code to prevent \n//             supposed criminals from conducting any transactions.\n//             Checks to see if an address is on the ONE blacklist.\n//         */\n//         bool isOnBlacklist = isAddrOnBlacklist(msg.sender);\n//         require(isOnBlacklist == false);\n//         /*\n//             Ends here.\n//         */\n\n//         require( // principle is not allowed to answer questions.\n//             msg.sender != principle,\n//             \"Principle is not allowed to answer questions, they're experts.\"    \n//         );\n        \n//         // require( // user must be a granted student (no experts).\n//         //     users[msg.sender].student,\n//         //     \"Other users may not answer questions, they are probably experts.\"\n//         // );\n\n//         questionAndAnswer memory myQuestionAndAnswer = questions[id];\n        \n//         bytes32 studentsAnswer = sha256(answer);\n        \n//         if((studentsAnswer) == (myQuestionAndAnswer.answer)){\n//             msg.sender.transfer(1000000000000000); //0.01 ETH\n//         }else{\n//             return;\n//         }\n//     }\n    \n//     function addQuestion(string memory q, bytes32 a) public{ // add a question\n//         require( // only crypto principle may add questions\n//             msg.sender == principle,\n//             \"Only Crypto principle may add questions.\"\n//         );\n//         questionAndAnswer memory myQuestionAndAnswer = questionAndAnswer(questionAndAnswerCount++, q, a);\n//         questions[questionAndAnswerCount] = myQuestionAndAnswer;\n//     }\n    \n//     function () external payable {} // Accept any incoming amount to fund the contract.\n\n//     constructor(address blAddress) public { // create contract, make sender the \"owner\" of the contract.\n//         /*\n//             Every exchange, wallet, game, etc. using smart contract must use this code to prevent \n//             supposed criminals from conducting any transactions.\n//             initialises this smart contract's instance of the ONE blacklist contract.\n//         */\n//         bl = Blacklist(blAddress);\n//         /*\n//             Ends here.\n//         */\n//         principle = msg.sender;\n//         addQuestion(\"What consensus algorithm does Bitcoin use?\", 0x73B01E93631118159B40599836BB23022CA7AD00C1203D18984CD982654E7F40);\n//         addQuestion(\"Normal currencies follow an inflationary price model, Bitcoin follows a ___ price model?\", 0x0069A1598BE3E8A3F4EB13B8B3ABEB4F62934EECF21E06E4BD7DD0E954C8F436);\n//         addQuestion(\"A blockchain that is strictly private, is just a glorified what?\", 0x3549B0028B75D981CDDA2E573E9CB49DEDC200185876DF299F912B79F69DABD8);\n//         addQuestion(\"What is the collection of all Ethereum nodes also known as? A world ___?\", 0xAA97302150FCE811425CD84537028A5AFBE37E3F1362AD45A51D467E17AFDC9C);\n//         addQuestion(\"What process is impossible to conduct on the Bitcoin blockchain, double ___?\", 0x262CD7E8D3156B5B97113A373C84D53289DB4530E285D5C8DB3E9874ABC891A9);\n//         addQuestion(\"What part of a cryptocurrency wallet must you never expose?\", 0xD7CD482CB958EF235F5D26E852472BA1EE5309EAB18E3C6712181A7BFAE80000);\n//     }\n    \n//     function selfdestruct() public {\n//         require(\n//             msg.sender == principle,\n//             \"Only Crypto principle may destroy the Crypto School.\"\n//         );\n//         selfdestruct();\n//     }\n// }\n",
  "sourcePath": "/home/charlie/Desktop/dapps_mash/blockchain_adoption/contracts/Quiz.sol",
  "compiler": {
    "name": "solc",
    "version": "0.5.12+commit.7709ece9.Emscripten.clang"
  },
  "schemaVersion": "3.0.19",
  "updatedAt": "2019-12-03T22:15:00.297Z",
  "networkType": "ethereum",
  "devdoc": {
    "methods": {}
  },
  "userdoc": {
    "methods": {}
  }
}